:1000000080316728003008007E1480310B1F0928DA
:100010000A2865284E011A1C0E280F281728101CC4
:100020001228132817289431D52480316528961E6C
:100030001A281B2823288C1E1E281F2823289431A9
:10004000CD2480316528991C262827282F288F1C2D
:100050002A282B282F289431A42480316528191CA4
:10006000322833283B280F1C362837283B28943168
:10007000A82480316528191E3E283F284A280F1ED3
:10008000422843284A2840014C088A004B080A00AD
:1000900080316528991E4D284E2859288F1E5128D9
:1000A0005228592840014A088A0049080A0080312C
:1000B0006528171C5C285D2865280D1C60286128B0
:1000C000652895314125803165287E1009008031F1
:1000D0006928F7308400873085005E308600003064
:1000E000870009309431C7248031F901FA01FB01FE
:1000F000FC01FD0120308400003085003E30943149
:10010000C1248031A0308400003085004630943115
:10011000C12480312030840001308500403094318A
:10012000C12480317E10400197314A2FF300CF2C3B
:100130004001250E890C890C0339033A031DA128BF
:10014000A228A72801308D3163258031C228250ED1
:10015000890C890C0339023A031DAF28B028B52851
:1001600003308D3163258031C228250E890C890C1E
:100170000339003A031DBD28BE28C22802308D3144
:10018000632580314001250E0339033A031DC92838
:10019000CA28CF2804308D3163258031E628250E0A
:1001A0000339023A031DD528D628DB2806308D31C5
:1001B00063258031E628250E0339003A031DE12826
:1001C000E228E62805308D31632580314001250C79
:1001D000890C0339033A031DEE28EF28F428073071
:1001E0008D31632580310D29250C890C0339023AA4
:1001F000031DFB28FC28012909308D31632580313E
:100200000D29250C890C0339003A031D08290929F9
:100210000D2908308D3163258031400125080339CF
:10022000033A031D142915291A290A308D31632533
:100230008031E62C25080339023A031D20292129A3
:1002400026290C308D3163258031E62C25080339B1
:10025000003A031D2C292D2932290B308D316325BD
:100260008031E62CE62C4001260E890C890C0339DE
:10027000033A031D3C293D2942290D308D31632568
:1002800080315D29260E890C890C0339023A031D41
:100290004A294B2950290F308D31632580315D2942
:1002A000260E890C890C0339003A031D5829592957
:1002B0005D290E308D31632580314001260E0339D2
:1002C000033A031D642965296A2910308D3163259D
:1002D00080318129260E0339023A031D70297129C4
:1002E000762912308D31632580318129260E03391C
:1002F000003A031D7C297D29812911308D31632528
:1003000080314001260C890C0339033A031D8929E9
:100310008A298F2913308D3163258031A829260C35
:10032000890C0339023A031D962997299C29153017
:100330008D3163258031A829260C890C0339003AB8
:10034000031DA329A429A82914308D3163258031E8
:10035000400126080339033A031DAF29B029B52906
:1003600016308D3163258031E62C26080339023A98
:10037000031DBB29BC29C12918308D31632580316B
:10038000E62C26080339003A031DC729C829E62CA4
:1003900017308D3163258031E62C4001270E890C02
:1003A000890C0339033A031DD629D729DC291930D2
:1003B0008D3163258031F729270E890C890C03398B
:1003C000023A031DE429E529EA291B308D31632512
:1003D0008031F729270E890C890C0339003A031D57
:1003E000F229F329F7291A308D3163258031400134
:1003F000270E0339033A031DFE29FF29042A1C3066
:100400008D31632580311B2A270E0339023A031DE3
:100410000A2A0B2A102A1E308D31632580311B2AAF
:10042000270E0339003A031D162A172A1B2A1D30EE
:100430008D31632580314001270C890C0339033A43
:10044000031D232A242A292A1F308D316325803158
:10045000422A270C890C0339023A031D302A312A1B
:10046000362A21308D3163258031422A270C890CB0
:100470000339003A031D3D2A3E2A422A20308D319D
:1004800063258031400127080339033A031D492AB7
:100490004A2A4F2A22308D3163258031E62C2708E5
:1004A0000339023A031D552A562A5B2A24308D311E
:1004B00063258031E62C27080339003A031D612AA1
:1004C000622AE62C23308D3163258031E62C4001F1
:1004D000280E890C890C0339033A031D702A712AEE
:1004E000762A25308D3163258031912A280E890C9A
:1004F000890C0339023A031D7E2A7F2A842A273079
:100500008D3163258031912A280E890C890C03399D
:10051000003A031D8C2A8D2A912A26308D316325BD
:1005200080314001280E0339033A031D982A992A85
:100530009E2A28308D3163258031B52A280E033953
:10054000023A031DA42AA52AAA2A2A308D3163253E
:100550008031B52A280E0339003A031DB02AB12A8A
:10056000B52A29308D31632580314001280C890C52
:100570000339033A031DBD2ABE2AC32A2B308D310D
:1005800063258031DC2A280C890C0339023A031DCB
:10059000CA2ACB2AD02A2D308D3163258031DC2A1E
:1005A000280C890C0339003A031DD72AD82ADC2AE3
:1005B0002C308D3163258031400128080339033AFE
:1005C000031DE32AE42AE92A2E308D316325803188
:1005D000E62C28080339023A031DEF2AF02AF52AEF
:1005E00030308D3163258031E62C28080339003AFC
:1005F000031DFB2AFC2AE62C2F308D316325803128
:10060000E62C4001290E890C890C0339033A031D9D
:100610000A2B0B2B102B31308D31632580312B2B86
:10062000290E890C890C0339023A031D182B192B4A
:100630001E2B33308D31632580312B2B290E890CF5
:10064000890C0339003A031D262B272B2B2B323024
:100650008D31632580314001290E0339033A031D92
:10066000322B332B382B34308D31632580314F2B97
:10067000290E0339023A031D3E2B3F2B442B363003
:100680008D31632580314F2B290E0339003A031D2C
:100690004A2B4B2B4F2B35308D3163258031400158
:1006A000290C890C0339033A031D572B582B5D2B5A
:1006B00037308D3163258031762B290C890C033935
:1006C000023A031D642B652B6A2B39308D3163256B
:1006D0008031762B290C890C0339003A031D712BCC
:1006E000722B762B38308D316325803140012908FB
:1006F0000339033A031D7D2B7E2B832B3A308D313A
:1007000063258031E62C29080339023A031D892B21
:100710008A2B8F2B3C308D3163258031E62C2908C4
:100720000339003A031D952B962BE62C3B308D3177
:1007300063258031E62C40012A0E890C890C03398F
:10074000033A031DA42BA52BAA2B3D308D31632525
:100750008031C52B2A0E890C890C0339023A031DFE
:10076000B22BB32BB82B3F308D3163258031C52B95
:100770002A0E890C890C0339003A031DC02BC12BAA
:10078000C52B3E308D316325803140012A0E03395F
:10079000033A031DCC2BCD2BD22B40308D3163255A
:1007A0008031E92B2A0E0339023A031DD82BD92BAD
:1007B000DE2B42308D3163258031E92B2A0E03393F
:1007C000003A031DE42BE52BE92B41308D316325E5
:1007D000803140012A0C890C0339033A031DF12BA7
:1007E000F22BF72B43308D3163258031102C2A0CEE
:1007F000890C0339023A031DFE2BFF2B042C4530D4
:100800008D3163258031102C2A0C890C0339003A74
:10081000031D0B2C0C2C102C44308D3163258031A2
:1008200040012A080339033A031D172C182C1D2CEC
:1008300046308D3163258031E62C2A080339023A8F
:10084000031D232C242C292C48308D316325803125
:10085000E62C2A080339003A031D2F2C302CE62CF5
:1008600047308D3163258031E62C40012C08033957
:10087000033A031D3C2C3D2C422C49308D3163251D
:100880008031592C2C080339023A031D482C492C7D
:100890004E2C4B308D3163258031592C2C08033977
:1008A000003A031D542C552C592C4A308D316325A8
:1008B000803140012B0E890C890C0339033A031D4A
:1008C000622C632C682C4C308D3163258031832C55
:1008D0002B0E890C890C0339023A031D702C712CE4
:1008E000762C4E308D3163258031832C2B0E890C74
:1008F000890C0339003A031D7E2C7F2C832C4D304C
:100900008D316325803140012B0E0339033A031DDD
:100910008A2C8B2C902C4F308D3163258031A72C65
:100920002B0E0339023A031D962C972C9C2C513028
:100930008D3163258031A72C2B0E0339003A031D1E
:10094000A22CA32CA72C50308D316325803140017F
:100950002B0C890C0339033A031DAF2CB02CB52C9A
:1009600052308D3163258031E62C2B0C890C0339F4
:10097000023A031DBC2CBD2CC22C54308D31632592
:100980008031E62C2B0C890C0339003A031DC92C4D
:10099000CA2CE62C53308D3163258031E62C730848
:1009A000053A03199828033A03193329013A031920
:1009B000CD290F3A0319672A013A0319012B033A8B
:1009C00003199B2B013A0319352CE62C0800013042
:1009D0004001B3070030B43D7A03031DF02CF12C25
:1009E000FE2C03303402E93003193302031CF92CC6
:1009F000FA2C0B2DFA01B301B4010B2D0330340294
:100A0000E93003193302031C062D072D0B2D01308D
:100A1000FA00B301B4013B03031D0F2D102D112D5E
:100A2000112D3903031D152D162D182D9B17282D5B
:100A300002303906031D1D2D1E2D272D7A08031D9A
:100A4000222D232D252D9B13282D9B17282D9B13FD
:100A50003703031D2C2D2D2D2F2D1B173F2D02305D
:100A60003706031D342D352D3E2D7A08031D392DF3
:100A70003A2D3C2D1B133F2D1B173F2D1B13350308
:100A8000031D432D442D462D9B14562D0230350653
:100A9000031D4B2D4C2D552D7A08031D502D512D26
:100AA000532D9B10562D9B14562D9B1041015E0318
:100AB000031D5B2D5C2D5F2D40019D14722D0230B6
:100AC0005E06031D642D652D702D7A08031D692DAA
:100AD0006A2D6D2D40019D10722D40019D14722DC7
:100AE00040019D1041015C03031D772D782D7B2D66
:100AF000400198148E2D02305C06031D802D812D3F
:100B00008C2D7A08031D852D862D892D4001981086
:100B10008E2D400198148E2D4001981041015A03EA
:100B2000031D932D942D972D40011814AA2D0230EA
:100B30005A06031D9C2D9D2DA82D7A08031DA12D5D
:100B4000A22DA52D40011810AA2D40011814AA2D80
:100B50004001181041015803031DAF2DB02DB32DD6
:100B600040019B16C62D02305806031DB82DB92D25
:100B7000C42D7A08031DBD2DBE2DC12D40019B1231
:100B8000C62D40019B16C62D40019B124101560304
:100B9000031DCB2DCC2DCF2D40011B14E22D023097
:100BA0005606031DD42DD52DE02D7A08031DD92D11
:100BB000DA2DDD2D40011B10E22D40011B14E22D2A
:100BC00040011B1041015403031DE72DE82DEB2DBF
:100BD00040011D14FE2D02305406031DF02DF12D91
:100BE000FC2D7A08031DF52DF62DF92D40011D1061
:100BF000FE2D40011D14FE2D40011D104101520328
:100C0000031D032E042E072E400118151A2E023044
:100C10005206031D0C2E0D2E182E7A08031D112EC0
:100C2000122E152E400118111A2E400118151A2ED9
:100C30004001181141015003031D1F2E202E232EA9
:100C400040019D16362E02305006031D282E292EF7
:100C5000342E7A08031D2D2E2E2E312E40019D128A
:100C6000362E40019D16362E40019D1241014E0345
:100C7000031D3B2E3C2E3F2E40011D17522E0230ED
:100C80004E06031D442E452E502E7A08031D492E74
:100C90004A2E4D2E40011D13522E40011D17522E7B
:100CA00040011D1341014C03031D572E582E5B2E8E
:100CB00040019D176E2E02304C06031D602E612EE2
:100CC0006C2E7A08031D652E662E692E40019D1339
:100CD0006E2E40019D176E2E40019D1341014A0367
:100CE000031D732E742E772E400119168A2E0230A2
:100CF0004A06031D7C2E7D2E882E7A08031D812E28
:100D0000822E852E400119128A2E400119168A2E34
:100D10004001191241014803031D8F2E902E932E7E
:100D200040019916A62E02304806031D982E992ED2
:100D3000A42E7A08031D9D2E9E2EA12E40019912ED
:100D4000A62E40019916A62E400199124101460394
:100D5000031DAB2EAC2EAF2E40011B16C22E02304F
:100D60004606031DB42EB52EC02E7A08031DB92EDB
:100D7000BA2EBD2E40011B12C22E40011B16C22EE0
:100D800040011B1241014403031DC72EC82ECB2E68
:100D900040011A16DE2E02304406031DD02ED12E3D
:100DA000DC2E7A08031DD52ED62ED92E40011A121C
:100DB000DE2E40011A16DE2E40011A1241014203B6
:100DC000031DE32EE42EE72E40019A15FA2E023081
:100DD0004206031DEC2EED2EF82E7A08031DF12E8F
:100DE000F22EF52E40019A11FA2E40019A15FA2E94
:100DF00040019A1141014003031DFF2E002F032FD4
:100E000040011A15162F02304006031D082F092F26
:100E1000142F7A08031D0D2F0E2F112F40011A11C8
:100E2000162F40011A15162F40011A1141013E03D9
:100E3000031D1B2F1C2F1F2F40019A14322F02302D
:100E40003E06031D242F252F302F7A08031D292F3E
:100E50002A2F2D2F40019A10322F40019A14322F41
:100E600040019A1041013C03031D372F382F3B2FBF
:100E700040011A144E2F02303C06031D402F412F13
:100E80004C2F7A08031D452F462F492F40011A1079
:100E90004E2F40011A144E2F40011A1041013A03FF
:100EA000031D532F542F572F400198156A2F0230DE
:100EB0003A06031D5C2F5D2F682F7A08031D612FF2
:100EC000622F652F400198116A2F400198156A2FF3
:100ED0004001981141013803031D6F2F702F732FAC
:100EE00040011816862F02303806031D782F792FFF
:100EF000842F7A08031D7D2F7E2F812F4001181229
:100F0000862F40011816862F400118124101360322
:100F1000031D8B2F8C2F8F2F40019B15A22F02308A
:100F20003606031D942F952FA02F7A08031D992FA5
:100F30009A2F9D2F40019B11A22F40019B15A22F9C
:100F400040019B1141013403031DA72FA82FAB2F94
:100F500040019D15BE2F02303406031DB02FB12F66
:100F6000BC2F7A08031DB52FB62FB92F40019D1154
:100F7000BE2F40019D15BE2F40019D11410132033E
:100F8000031DC32FC42FC72F40011C14DA2F0230BA
:100F90003206031DCC2FCD2FD82F7A08031DD12F59
:100FA000D22FD52F40011C10DA2F40011C14DA2F4C
:100FB00040011C1041013003031DDF2FE02FE32F00
:100FC00040011914F62F02303006031DE82FE92FD7
:100FD000F42F7A08031DED2FEE2FF12F4001191089
:100FE000F62F40011914F62F40011910080055344E
:100FF00055345534553455345534553455340F34EF
:1010000008005530400141065530031942060319C6
:101010000A280B280C28010011304001C1071130AB
:10102000C23D08004E010F1043018F1A18281928DD
:101030005228943196248831F700F801770841014D
:10104000E4007808E5004001DD01F401F40A4E08EF
:101050008A004D080A008831013A031D30283128E2
:101060004E2843010F1D352836284A280F183928E5
:101070003A284A280330F40040014E088A004D08FF
:101080000A008831003A031D462847284A284301B0
:1010900091161116430191121116872843019116DA
:1010A000111687280F1D552856286F280F18592804
:1010B0005A288728911A5D285E2887280330F40073
:1010C00040014E088A004D080A008831003A031D8D
:1010D0006A286B28872843019116111687280F1C50
:1010E0007228732887280230F40040014E088A00D5
:1010F0004D080A008831013A031D7F288028842882
:1011000043019112111687284301911611164301CC
:10111000101608004D293A30840098308500013FB0
:101120008A00003F0A008831003A031D9828992858
:10113000662901304001D200662940015208031996
:10114000A228A328B7283630840098308500013FB4
:101150008A00003F0A008831F90010307902031C30
:10116000B228B328B428F9014001D2016629103011
:1011700079020318BC28BD2866297908203E86001C
:1011800087010030873D3630840098308500013F6C
:101190008A00003F0A008831810005307902031C73
:1011A000D228D328DD280C3079020318D828D92872
:1011B000DD2879088031962088310130F907103018
:1011C0007902031CE428E5286629F9016629103014
:1011D00079020318EC28ED283E290C307906031912
:1011E000F228F328F9280D307906031DF828F9288C
:1011F00024297908203E860087010030873D0108B8
:10120000F0003430840098308500013F8A00003FB0
:101210000A0089310C307906031D0F2910291A297B
:101220004001AD132D13AD122D12AD112D11AD10C6
:101230002D1035294001AE132E13AE122E12AE1111
:101240002E11AE102E1035297908203E8600870118
:101250000030873D0108F00034308400983085006C
:10126000013F8A00003F0A0089310130F907103040
:101270007902031C3C293D296629E528F001343018
:10128000840098308500013F8A00003F0A008931C0
:101290006629F9014001D20166297408F500F601BA
:1012A0007608003A0319552966297508013A031989
:1012B0008B28033A03199D28013A0319E728073AB6
:1012C00003196629013A03194929662901300800E2
:1012D0004001EA010310E50D101D6F2970297229E4
:1012E00065147429FE30E5050310E40D0F1D7929FE
:1012F0007A297C2964147E29FE30E4050310E30D6D
:10130000111D83298429862963148829FE30E30569
:101310000310E20D901C8D298E29902962149229C8
:10132000FE30E2050310E10D8C1E972998299A29B9
:1013300061149C29FE30E1050310E00D8D1DA129EB
:10134000A229A4296014A629FE30E0050310DF0DB0
:10135000111EAB29AC29AE295F14972AFE30DF0598
:10136000972AE9016508031DB629B729B929013073
:10137000E9076408031DBD29BE29C0290130E9071A
:101380006308031DC429C529C7290130E90762087C
:10139000031DCB29CC29CE290130E9076108031DA3
:1013A000D229D329D5290130E9076008031DD9299D
:1013B000DA29DC290130E9075F08031DE029E1296A
:1013C000E3290130E90702306902031CE829E92911
:1013D000EC290F30E600D12A6508031DF029F12918
:1013E000F4290130E600D12A6408031DF829F929FF
:1013F000FC290230E600D12A6308031D002A012AD5
:10140000042A0330E600D12A6208031D082A092AAB
:101410000C2A0430E600D12A6108031D102A112A83
:10142000142A0530E600D12A6008031D182A192A5B
:101430001C2A0630E600D12A5F08031D202A212A33
:10144000242A0730E600D12AD12A650A031D292A59
:101450002A2AD12A0830E600D12A640A031D312A3B
:10146000322AD12A0930E600D12A630A031D392A1B
:101470003A2AD12A0A30E600D12A620A031D412AFB
:10148000422AD12A0B30E600D12A610A031D492ADB
:101490004A2AD12A0C30E600D12A600A031D512ABB
:1014A000522AD12A0D30E600D12A5F0A031D592A9B
:1014B0005A2AD12A0E30E600D12A0130EA00E6018C
:1014C000D12A0230EA005F2A0330EA005F2A0430A2
:1014D000EA005F2A0530EA005F2A0630EA005F2A48
:1014E0000730EA005F2A650A031D772A782AD12A85
:1014F000640A031D7C2A7D2AD12A630A031D812ADE
:10150000822AD12A620A031D862A872AD12A610AE1
:10151000031D8B2A8C2AD12A600A031D902A912A46
:10152000D12A5F0A031D952A962AD12A5F2A6608C6
:10153000E700E8016808003A03199F2AE9296708CB
:10154000003A0319B129013A0319252A033A03196C
:101550002D2A013A0319352A073A03193D2A013A7F
:101560000319452A033A03194D2A013A0319552A4A
:101570000F3A03195D2A013A0319612A033A031944
:10158000642A013A0319672A073A03196A2A013AB9
:1015900003196D2A033A0319702A013A0319732AB1
:1015A000E9296A0808004001E900562C0130BB0017
:1015B000622D0230BB00622DBB01622D0130B900EB
:1015C000622D0230B900622DB901622D0130B700E1
:1015D000622D0230B700622DB701622D0130B500D7
:1015E000622D0230B500622DB501622D013041013E
:1015F000DE00622D02304101DE00622D4101DE017C
:10160000622D01304101DC00622D02304101DC001D
:10161000622D4101DC01622D01304101DA00622DB1
:1016200002304101DA00622D4101DA01622D013000
:101630004101D800622D02304101D800622D4101E4
:10164000D801622D01304101D600622D02304101E6
:10165000D600622D4101D601622D01304101D40036
:10166000622D02304101D400622D4101D401622D6E
:1016700001304101D200622D02304101D200622DC1
:101680004101D201622D01304101D000622D0230B2
:101690004101D000622D4101D001622D0130410194
:1016A000CE00622D02304101CE00622D4101CE01FB
:1016B000622D01304101CC00622D02304101CC008D
:1016C000622D4101CC01622D01304101CA00622D21
:1016D00002304101CA00622D4101CA01622D013070
:1016E0004101C800622D02304101C800622D410154
:1016F000C801622D01304101C600622D0230410156
:10170000C600622D4101C601622D01304101C400B5
:10171000622D02304101C400622D4101C401622DDD
:1017200001304101C200622D02304101C200622D30
:101730004101C201622D01304101C000622D023021
:101740004101C000622D4101C001622D0130410103
:10175000BE00622D02304101BE00622D4101BE017A
:10176000622D01304101BC00622D02304101BC00FC
:10177000622D4101BC01622D01304101BA00622D90
:1017800002304101BA00622D4101BA01622D0130DF
:101790004101B800622D02304101B800622D4101C3
:1017A000B801622D01304101B600622D02304101C5
:1017B000B600622D4101B601622D01304101B40035
:1017C000622D02304101B400622D4101B401622D4D
:1017D00001304101B200622D02304101B200622DA0
:1017E0004101B201622D01304101B000622D023091
:1017F0004101B000622D4101B001622DBB01B90170
:10180000B701B5014101DE01DC01DA01D801D601E1
:10181000D401D201D001CE01CC01CA01C801C60158
:10182000C401C201C001BE01BC01BA01B801B601C8
:10183000B401B201B001622D0130BB000130B9002A
:101840000130B7000130B50001304101DE00013048
:10185000DC000130DA000130D8000130D600013060
:10186000D4000130D2000130D0000130CE00013070
:10187000CC000130CA000130C8000130C600013080
:10188000C4000130C2000130C0000130BE00013090
:10189000BC000130BA000130B8000130B6000130A0
:1018A000B4000130B2000130B000622D6908E700D9
:1018B000E8016808003A03195E2CFE2B6708003A1D
:1018C0000319FE2B013A0319D62A033A0319DC2A1D
:1018D000013A0319D92A073A0319DE2A013A0319F2
:1018E000E42A033A0319E12A013A0319E62A0F3AD6
:1018F0000319EC2A013A0319E92A033A0319EE2ADB
:10190000013A0319F42A073A0319F12A013A031993
:10191000F62A033A0319FE2A013A0319FA2A1F3A52
:101920000319012B013A0319092B033A0319052B5B
:10193000013A03190C2B073A0319142B013A031926
:10194000102B033A0319172B013A03191F2B0F3AD7
:1019500003191B2B013A0319222B033A03192A2BD3
:10196000013A0319262B073A03192D2B013A0319C3
:10197000352B033A0319312B013A0319382B3F3A1F
:101980000319402B013A03193C2B033A0319432B4B
:10199000013A03194B2B073A0319472B013A031954
:1019A0004E2B033A0319562B013A0319522B0F3AC7
:1019B0000319592B013A0319612B033A03195D2BC3
:1019C000013A0319642B073A03196C2B013A0319E6
:1019D000682B033A03196F2B013A0319772B1F3A2F
:1019E0000319732B013A03197A2B033A0319822B3B
:1019F000013A03197E2B073A0319852B013A031983
:101A00008D2B033A0319892B013A0319902B0F3AB6
:101A10000319982B013A0319942B033A03199B2BB2
:101A2000013A0319A32B073A03199F2B013A031913
:101A3000A62B033A0319AE2B013A0319AA2B7F3ABE
:101A40000319B12B013A0319B92B033A0319B52B2A
:101A5000013A0319BC2B073A0319C42B013A0319A5
:101A6000C02B033A0319C72B013A0319CF2B0F3AA6
:101A70000319CB2B013A0319D22B033A0319DA2BA2
:101A8000013A0319D62B073A0319DD2B013A031942
:101A9000E52B033A0319E12B013A0319E82B1F3A0E
:101AA0000319F02B013A0319EC2B033A0319F32B1A
:101AB000013A0319FB2B073A0319F72B013A0319D3
:101AC0001C2CFE2B0800F200F32E01304001BB005D
:101AD000FF2F02304001BB00FF2F4001BB01FF2F51
:101AE00001304001B900FF2F02304001B900FF2F43
:101AF0004001B901FF2F01304001B700FF2F023034
:101B00004001B700FF2F4001B701FF2F0130400116
:101B1000B500FF2F02304001B500FF2F4001B50195
:101B2000FF2F01304101DE00FF2F02304101DE00B6
:101B3000FF2F4101DE01FF2F01304101DC00FF2FAB
:101B400002304101DC00FF2F4101DC01FF2F013099
:101B50004101DA00FF2F02304101DA00FF2F41017D
:101B6000DA01FF2F01304101D800FF2F023041017F
:101B7000D800FF2F4101D801FF2F01304101D600CD
:101B8000FF2F02304101D600FF2F4101D601FF2F68
:101B900001304101D400FF2F02304101D400FF2F5A
:101BA0004101D401FF2F01304101D200FF2F02304B
:101BB0004101D200FF2F4101D201FF2F013041012D
:101BC000D000FF2F02304101D000FF2F4101D00192
:101BD000FF2F01304101CE00FF2F02304101CE0026
:101BE000FF2F4101CE01FF2F01304101CC00FF2F1B
:101BF00002304101CC00FF2F4101CC01FF2F013009
:101C00004101CA00FF2F02304101CA00FF2F4101EC
:101C1000CA01FF2F01304101C800FF2F02304101EE
:101C2000C800FF2F4101C801FF2F01304101C6004C
:101C3000FF2F02304101C600FF2F4101C601FF2FD7
:101C400001304101C400FF2F02304101C400FF2FC9
:101C50004101C401FF2F01304101C200FF2F0230BA
:101C60004101C200FF2F4101C201FF2F013041019C
:101C7000C000FF2F02304101C000FF2F4101C00111
:101C8000FF2F01304101BE00FF2F02304101BE0095
:101C9000FF2F4101BE01FF2F01304101BC00FF2F8A
:101CA00002304101BC00FF2F4101BC01FF2F013078
:101CB0004101BA00FF2F02304101BA00FF2F41015C
:101CC000BA01FF2F01304101B800FF2F023041015E
:101CD000B800FF2F4101B801FF2F01304101B600CC
:101CE000FF2F02304101B600FF2F4101B601FF2F47
:101CF00001304101B400FF2F02304101B400FF2F39
:101D00004101B401FF2F01304101B200FF2F023029
:101D10004101B200FF2F4101B201FF2F013041010B
:101D2000B000FF2F02304101B000FF2F4101B00190
:101D3000FF2F4001BB01B901B701B5014101DE012F
:101D4000DC01DA01D801D601D401D201D001CE01E3
:101D5000CC01CA01C801C601C401C201C001BE0153
:101D6000BC01BA01B801B601B401B201B001FF2F44
:101D700001304001BB000130B9000130B700013033
:101D8000B50001304101DE000130DC000130DA0035
:101D90000130D8000130D6000130D4000130D2002B
:101DA0000130D0000130CE000130CC000130CA003B
:101DB0000130C8000130C6000130C4000130C2004B
:101DC0000130C0000130BE000130BC000130BA005B
:101DD0000130B8000130B6000130B4000130B2006B
:101DE0000130B000FF2F7208F000F1017108003AD5
:101DF0000319FB2E992E7008003A0319992E013A07
:101E00000319652D033A03196D2D013A0319692D44
:101E1000073A0319702D013A0319782D033A031973
:101E2000742D013A03197B2D0F3A0319832D013AC2
:101E300003197F2D033A0319862D013A03198E2DBC
:101E4000073A03198A2D013A0319912D033A031910
:101E5000992D013A0319952D1F3A03199C2D013A2A
:101E60000319A42D033A0319A02D013A0319A72D34
:101E7000073A0319AF2D013A0319AB2D033A0319A1
:101E8000B22D013A0319BA2D0F3A0319B62D013AB2
:101E90000319BD2D033A0319C52D013A0319C12DAC
:101EA000073A0319C82D013A0319D02D033A031933
:101EB000CC2D013A0319D32D3F3A0319DB2D013AFA
:101EC0000319D72D033A0319DE2D013A0319E62D24
:101ED000073A0319E22D013A0319E92D033A0319D0
:101EE000F12D013A0319ED2D0F3A0319F42D013AA2
:101EF0000319FC2D033A0319F82D013A0319FF2D9C
:101F0000073A0319072E013A0319032E033A03195E
:101F10000A2E013A0319122E1F3A03190E2E013A06
:101F20000319152E033A03191D2E013A0319192E10
:101F3000073A0319202E013A0319282E033A0319F0
:101F4000242E013A03192B2E0F3A0319332E013A8E
:101F500003192F2E033A0319362E013A03193E2E88
:101F6000073A03193A2E013A0319412E033A03198D
:101F7000492E013A0319452E7F3A03194C2E013A96
:101F80000319542E033A0319502E013A0319572E00
:101F9000073A03195F2E013A03195B2E033A03191E
:101FA000622E013A03196A2E0F3A0319662E013A7E
:101FB00003196D2E033A0319752E013A0319712E78
:101FC000073A0319782E013A0319802E033A0319B0
:101FD0007C2E013A0319832E1F3A03198B2E013AE6
:101FE0000319872E033A03198E2E013A0319962EF0
:101FF000073A0319922E013A0319B82E992E0800B8
:10292A00080043010C08080050019E1108004201EA
:10293A001D121D160800700843018C00080095310D
:10294A00F525943108008831122094310800943119
:10295A0099249431080043010F0C890C01390800AD
:10296A0040016808D0006708CF00080040016808E5
:10297A00C8006708C7000800640080010131890B9C
:10298A00C22C0034FE0012001E00FE0BC82C0034BC
:10299A004E018C12FF304B019D00FE309C00080056
:1029AA004E011010FC3044018D0017308C000130AC
:1029BA004001DC0008004E010C1000304001E70025
:1029CA000030E8009431BB249431080040016708C4
:1029DA0068040319F12CF22CF62C6808C600670863
:1029EA00C50008004001670868040319FD2CFE2C85
:1029FA00022D6808C4006708C30008004001670880
:102A0A0068040319092D0A2D0E2D6808CA006708E3
:102A1A00C90008004001670868040319152D162D1E
:102A2A001A2D6808CC006708CB0008004001670827
:102A3A0068040319212D222D262D6808CE00670867
:102A4A00CD000800103051018D008F019101053031
:102A5A0093009201101C322D332D2F2D0800913036
:102A6A004B019E0040309F00FF309D00FE309C00CD
:102A7A004E0196168C1208004E010D1040014F08A7
:102A8A0050040319492D4A2D4F2D50088A004F082A
:102A9A000A0095310800313044018E008F019001FF
:102AAA0001309100FC308D0017308C004E011A1451
:102ABA001010080088304001410688300319420688
:102ACA000319682D692D6A2D01004001C101C20157
:102ADA0064000800C03041019E009B019C019F01D7
:102AEA0019309D004E010D1095304001E700143059
:102AFA00E8009431B52495314E0117140800A4302A
:102B0A0043018F0006309004013091009201403059
:102B1A008D008E014E011914991402304001E7000C
:102B2A000030E80095311B259531430190160800C5
:102B3A001030400159020318A32DA42DB52D5A08AF
:102B4A00A03E86008701010842019A0040015A0806
:102B5A00013E0F39F0007008DA000130D907B72DAD
:102B6A004E01191208009531272595319631DD2637
:102B7A00953195316F25953196314F26953195319D
:102B8A00842595319431AC2495319531342595318C
:102B9A009531502595319431E02495310800400152
:102BAA00EA006A08E900E90DE90D41011D08400142
:102BBA0069060339690641019D001D140D30890B10
:102BCA00E42D000041019D149D18EC2DED2DE92DF9
:102BDA001C084001E80041011B084001E700080009
:102BEA004E018F1CF92DFA2D072E01304001DD0010
:102BFA000530F4004E088A004D080A0096314E014D
:102C0A008F10182E4301901F0B2E0C2E182E0230F7
:102C1A004001DD000530F4004E088A004D080A0024
:102C2A009631430190134301101608004001E9014F
:102C3A00EA0120304001E7000030E8006908670730
:102C4A0086006A08683D870081010130E907003083
:102C5A00EA3D6A08803AE70080306702031D372E92
:102C6A0010306902031C3A2E3B2E1E2E4001210809
:102C7A00F0390238A10021088F391038A10010302C
:102C8A00A2001230A3003430A4000A30AF000A3088
:102C9A00B00008004E0199128C304001E70016304E
:102CAA00E8009531032596314E0119129D304001F5
:102CBA00E7001530E80095310F259631483042017A
:102CCA009F0090309D0026309E0040309B000330CC
:102CDA009C0000304001E7000830E8009431EB2402
:102CEA0096319C304001E7001430E8009431F72413
:102CFA0096314101E201E3014001DB01DA011030C2
:102D0A00D900FB01D801D7014E01991608007B357D
:102D1A00203E8600013087000030C03FC13F42019B
:102D2A009D1C982E992EAB2E7B35203E86000130B5
:102D3A00870001154001430844040319A52EA62E55
:102D4A00AB2E44088A0043080A00963142011D1D31
:102D5A00AF2EB02EC22E7B35203E86000130870072
:102D6A0081144001450846040319BC2EBD2EC22E0B
:102D7A0046088A0045080A00963142011908F000FF
:102D8A007B08013E0F39F100710840015806031D06
:102D9A00CF2ED02ED12EDC2E7B08503E860001305D
:102DAA008700700881007108FB000130D70708000E
:102DBA0040019801063099009A019B019C019D01EE
:102DCA0060309200CE309300803094000430950039
:102DDA000E3096001430970040307E01B800C301CF
:102DEA00CE01D901E4017C01D00120307E01B90075
:102DFA000830C400CF010430DA000630E500143090
:102E0A007C01D1007E01BA01C501D001DB01E601D6
:102E1A007C01D201FF307E01BB00FF30C600FF30CB
:102E2A00D100FF30DC000730E700FF307C01D3001F
:102E3A00FF307E01BC00FF30C700FF30D200FF30F8
:102E4A00DD000F30E800FF307C01D40017307D012F
:102E5A00CB000F307E01A60009307D01C500153078
:102E6A007E0199000A307D01C60016307E019A0063
:102E7A00BD01BE01BF01C801C901CA01D301D40104
:102E8A00D501E901EA01EB0108009531B82597312E
:102E9A0096311B2697318A304001E7000830E80056
:102EAA003E30840098308500013F8A00003F0A00C6
:102EBA0097318B170B1740015C080319652F662F92
:102ECA00602FDC015530C1005530C2008831012025
:102EDA00973140016D080319732F742F772F013032
:102EEA00ED02BD2F0A30ED0006309531D425973119
:102EFA0040016808C0006708BF005535403E86009B
:102F0A00013087003F08C03F4008C13F5508013ED5
:102F1A000739D500BD01BE01EF016F35403E86007D
:102F2A0001308700403FEB00413FEC006B08BD07D2
:102F3A006C08BE3D0130EF0708306F02031CA62F54
:102F4A00A72F922F3E08EC003D08EB00EC36EB0C65
:102F5A00EC36EB0CEC36EB0C6B084101E00040015F
:102F6A006C084101E1008931682197314001EE0086
:102F7A008431E724973140016E080319C52FC62F03
:102F8A00F62FDA2FAD17F42F2D17F42FAD16F42FD5
:102F9A002D16F42FAD15F42F2D15F42FAD14F42F93
:102FAA0055308A31D3229731F42F6E08003A03192B
:102FBA00D52F013A0319C72F033A0319C92F013A2A
:102FCA000319CB2F073A0319CD2F013A0319CF2F33
:102FDA00033A0319D12F013A0319D32FF42F4001D1
:102FEA00EE012230C1072230C23D95315F2597316B
:102FFA00602F803167284F3416340034003400348F
:10300A000034003400340034003400340034003416
:10301A000034003400340034003400340034003406
:10302A0000340034003400340034003400340034F6
:10303A00003400340034003400340F3415340334BF
:10304A00153400340034EB341434F73414340034B7
:10305A000034003400348434153400340034A0348D
:10306A0014349634143400340034B0341434003434
:0A307A0000341B3415340034003418
:020000040001F9
:0A000E009C3FFF3FFF3FFF3FFF3F15
:00000001FF
